{
  "contractName": "RWD",
  "abi": [
    {
      "inputs": [],
      "stateMutability": "nonpayable",
      "type": "constructor"
    },
    {
      "anonymous": false,
      "inputs": [
        {
          "indexed": true,
          "internalType": "address",
          "name": "_owner",
          "type": "address"
        },
        {
          "indexed": true,
          "internalType": "address",
          "name": "_spender",
          "type": "address"
        },
        {
          "indexed": false,
          "internalType": "uint256",
          "name": "_value",
          "type": "uint256"
        }
      ],
      "name": "Approve",
      "type": "event"
    },
    {
      "anonymous": false,
      "inputs": [
        {
          "indexed": true,
          "internalType": "address",
          "name": "_from",
          "type": "address"
        },
        {
          "indexed": true,
          "internalType": "address",
          "name": "_to",
          "type": "address"
        },
        {
          "indexed": false,
          "internalType": "uint256",
          "name": "_value",
          "type": "uint256"
        }
      ],
      "name": "Transfer",
      "type": "event"
    },
    {
      "inputs": [
        {
          "internalType": "address",
          "name": "",
          "type": "address"
        },
        {
          "internalType": "address",
          "name": "",
          "type": "address"
        }
      ],
      "name": "allowance",
      "outputs": [
        {
          "internalType": "uint256",
          "name": "",
          "type": "uint256"
        }
      ],
      "stateMutability": "view",
      "type": "function"
    },
    {
      "inputs": [
        {
          "internalType": "address",
          "name": "",
          "type": "address"
        }
      ],
      "name": "balanceOf",
      "outputs": [
        {
          "internalType": "uint256",
          "name": "",
          "type": "uint256"
        }
      ],
      "stateMutability": "view",
      "type": "function"
    },
    {
      "inputs": [],
      "name": "decimals",
      "outputs": [
        {
          "internalType": "uint8",
          "name": "",
          "type": "uint8"
        }
      ],
      "stateMutability": "view",
      "type": "function"
    },
    {
      "inputs": [],
      "name": "name",
      "outputs": [
        {
          "internalType": "string",
          "name": "",
          "type": "string"
        }
      ],
      "stateMutability": "view",
      "type": "function"
    },
    {
      "inputs": [],
      "name": "symbol",
      "outputs": [
        {
          "internalType": "string",
          "name": "",
          "type": "string"
        }
      ],
      "stateMutability": "view",
      "type": "function"
    },
    {
      "inputs": [],
      "name": "totalSupply",
      "outputs": [
        {
          "internalType": "uint256",
          "name": "",
          "type": "uint256"
        }
      ],
      "stateMutability": "view",
      "type": "function"
    },
    {
      "inputs": [
        {
          "internalType": "address",
          "name": "_to",
          "type": "address"
        },
        {
          "internalType": "uint256",
          "name": "_value",
          "type": "uint256"
        }
      ],
      "name": "transfer",
      "outputs": [
        {
          "internalType": "bool",
          "name": "success",
          "type": "bool"
        }
      ],
      "stateMutability": "nonpayable",
      "type": "function"
    },
    {
      "inputs": [
        {
          "internalType": "address",
          "name": "_spender",
          "type": "address"
        },
        {
          "internalType": "uint256",
          "name": "_value",
          "type": "uint256"
        }
      ],
      "name": "approved",
      "outputs": [
        {
          "internalType": "bool",
          "name": "success",
          "type": "bool"
        }
      ],
      "stateMutability": "nonpayable",
      "type": "function"
    },
    {
      "inputs": [
        {
          "internalType": "address",
          "name": "_from",
          "type": "address"
        },
        {
          "internalType": "address",
          "name": "_to",
          "type": "address"
        },
        {
          "internalType": "uint256",
          "name": "_value",
          "type": "uint256"
        }
      ],
      "name": "transferFrom",
      "outputs": [
        {
          "internalType": "bool",
          "name": "success",
          "type": "bool"
        }
      ],
      "stateMutability": "nonpayable",
      "type": "function"
    }
  ],
  "bytecode": "0x60806040526040518060400160405280600c81526020017f52657761726420546f6b656e0000000000000000000000000000000000000000815250600090805190602001906200005192919062000124565b506040518060400160405280600381526020017f5257440000000000000000000000000000000000000000000000000000000000815250600190805190602001906200009f92919062000124565b5069d3c21bcecceda10000006002556012600360006101000a81548160ff021916908360ff160217905550348015620000d757600080fd5b50600254600460003373ffffffffffffffffffffffffffffffffffffffff1673ffffffffffffffffffffffffffffffffffffffff1681526020019081526020016000208190555062000239565b828054620001329062000203565b90600052602060002090601f016020900481019282620001565760008555620001a2565b82601f106200017157805160ff1916838001178555620001a2565b82800160010185558215620001a2579182015b82811115620001a157825182559160200191906001019062000184565b5b509050620001b19190620001b5565b5090565b5b80821115620001d0576000816000905550600101620001b6565b5090565b7f4e487b7100000000000000000000000000000000000000000000000000000000600052602260045260246000fd5b600060028204905060018216806200021c57607f821691505b60208210811415620002335762000232620001d4565b5b50919050565b610dd280620002496000396000f3fe608060405234801561001057600080fd5b50600436106100935760003560e01c806370a082311161006657806370a082311461012257806395d89b4114610152578063a9059cbb14610170578063c1448284146101a0578063dd62ed3e146101d057610093565b806306fdde031461009857806318160ddd146100b657806323b872dd146100d4578063313ce56714610104575b600080fd5b6100a0610200565b6040516100ad9190610958565b60405180910390f35b6100be61028e565b6040516100cb9190610993565b60405180910390f35b6100ee60048036038101906100e99190610a3d565b610294565b6040516100fb9190610aab565b60405180910390f35b61010c610586565b6040516101199190610ae2565b60405180910390f35b61013c60048036038101906101379190610afd565b610599565b6040516101499190610993565b60405180910390f35b61015a6105b1565b6040516101679190610958565b60405180910390f35b61018a60048036038101906101859190610b2a565b61063f565b6040516101979190610aab565b60405180910390f35b6101ba60048036038101906101b59190610b2a565b6107a8565b6040516101c79190610aab565b60405180910390f35b6101ea60048036038101906101e59190610b6a565b61089a565b6040516101f79190610993565b60405180910390f35b6000805461020d90610bd9565b80601f016020809104026020016040519081016040528092919081815260200182805461023990610bd9565b80156102865780601f1061025b57610100808354040283529160200191610286565b820191906000526020600020905b81548152906001019060200180831161026957829003601f168201915b505050505081565b60025481565b6000600460008573ffffffffffffffffffffffffffffffffffffffff1673ffffffffffffffffffffffffffffffffffffffff16815260200190815260200160002054821115610318576040517f08c379a000000000000000000000000000000000000000000000000000000000815260040161030f90610c57565b60405180910390fd5b600560008573ffffffffffffffffffffffffffffffffffffffff1673ffffffffffffffffffffffffffffffffffffffff16815260200190815260200160002060003373ffffffffffffffffffffffffffffffffffffffff1673ffffffffffffffffffffffffffffffffffffffff168152602001908152602001600020548211156103d7576040517f08c379a00000000000000000000000000000000000000000000000000000000081526004016103ce90610cc3565b60405180910390fd5b81600460008573ffffffffffffffffffffffffffffffffffffffff1673ffffffffffffffffffffffffffffffffffffffff16815260200190815260200160002060008282546104269190610d12565b9250508190555081600460008673ffffffffffffffffffffffffffffffffffffffff1673ffffffffffffffffffffffffffffffffffffffff168152602001908152602001600020600082825461047c9190610d68565b9250508190555081600560003373ffffffffffffffffffffffffffffffffffffffff1673ffffffffffffffffffffffffffffffffffffffff16815260200190815260200160002060008673ffffffffffffffffffffffffffffffffffffffff1673ffffffffffffffffffffffffffffffffffffffff168152602001908152602001600020600082825461050f9190610d68565b925050819055508373ffffffffffffffffffffffffffffffffffffffff168373ffffffffffffffffffffffffffffffffffffffff167fddf252ad1be2c89b69c2b068fc378daa952ba7f163c4a11628f55a4df523b3ef846040516105739190610993565b60405180910390a3600190509392505050565b600360009054906101000a900460ff1681565b60046020528060005260406000206000915090505481565b600180546105be90610bd9565b80601f01602080910402602001604051908101604052809291908181526020018280546105ea90610bd9565b80156106375780601f1061060c57610100808354040283529160200191610637565b820191906000526020600020905b81548152906001019060200180831161061a57829003601f168201915b505050505081565b600081600460003373ffffffffffffffffffffffffffffffffffffffff1673ffffffffffffffffffffffffffffffffffffffff16815260200190815260200160002054101561068d57600080fd5b81600460003373ffffffffffffffffffffffffffffffffffffffff1673ffffffffffffffffffffffffffffffffffffffff16815260200190815260200160002060008282546106dc9190610d68565b9250508190555081600460008573ffffffffffffffffffffffffffffffffffffffff1673ffffffffffffffffffffffffffffffffffffffff16815260200190815260200160002060008282546107329190610d12565b925050819055508273ffffffffffffffffffffffffffffffffffffffff163373ffffffffffffffffffffffffffffffffffffffff167fddf252ad1be2c89b69c2b068fc378daa952ba7f163c4a11628f55a4df523b3ef846040516107969190610993565b60405180910390a36001905092915050565b600081600560003373ffffffffffffffffffffffffffffffffffffffff1673ffffffffffffffffffffffffffffffffffffffff16815260200190815260200160002060008573ffffffffffffffffffffffffffffffffffffffff1673ffffffffffffffffffffffffffffffffffffffff168152602001908152602001600020819055508273ffffffffffffffffffffffffffffffffffffffff163373ffffffffffffffffffffffffffffffffffffffff167f6e11fb1b7f119e3f2fa29896ef5fdf8b8a2d0d4df6fe90ba8668e7d8b2ffa25e846040516108889190610993565b60405180910390a36001905092915050565b6005602052816000526040600020602052806000526040600020600091509150505481565b600081519050919050565b600082825260208201905092915050565b60005b838110156108f95780820151818401526020810190506108de565b83811115610908576000848401525b50505050565b6000601f19601f8301169050919050565b600061092a826108bf565b61093481856108ca565b93506109448185602086016108db565b61094d8161090e565b840191505092915050565b60006020820190508181036000830152610972818461091f565b905092915050565b6000819050919050565b61098d8161097a565b82525050565b60006020820190506109a86000830184610984565b92915050565b600080fd5b600073ffffffffffffffffffffffffffffffffffffffff82169050919050565b60006109de826109b3565b9050919050565b6109ee816109d3565b81146109f957600080fd5b50565b600081359050610a0b816109e5565b92915050565b610a1a8161097a565b8114610a2557600080fd5b50565b600081359050610a3781610a11565b92915050565b600080600060608486031215610a5657610a556109ae565b5b6000610a64868287016109fc565b9350506020610a75868287016109fc565b9250506040610a8686828701610a28565b9150509250925092565b60008115159050919050565b610aa581610a90565b82525050565b6000602082019050610ac06000830184610a9c565b92915050565b600060ff82169050919050565b610adc81610ac6565b82525050565b6000602082019050610af76000830184610ad3565b92915050565b600060208284031215610b1357610b126109ae565b5b6000610b21848285016109fc565b91505092915050565b60008060408385031215610b4157610b406109ae565b5b6000610b4f858286016109fc565b9250506020610b6085828601610a28565b9150509250929050565b60008060408385031215610b8157610b806109ae565b5b6000610b8f858286016109fc565b9250506020610ba0858286016109fc565b9150509250929050565b7f4e487b7100000000000000000000000000000000000000000000000000000000600052602260045260246000fd5b60006002820490506001821680610bf157607f821691505b60208210811415610c0557610c04610baa565b5b50919050565b7f7574696c69747900000000000000000000000000000000000000000000000000600082015250565b6000610c416007836108ca565b9150610c4c82610c0b565b602082019050919050565b60006020820190508181036000830152610c7081610c34565b9050919050565b7f7574696c69746965730000000000000000000000000000000000000000000000600082015250565b6000610cad6009836108ca565b9150610cb882610c77565b602082019050919050565b60006020820190508181036000830152610cdc81610ca0565b9050919050565b7f4e487b7100000000000000000000000000000000000000000000000000000000600052601160045260246000fd5b6000610d1d8261097a565b9150610d288361097a565b9250827fffffffffffffffffffffffffffffffffffffffffffffffffffffffffffffffff03821115610d5d57610d5c610ce3565b5b828201905092915050565b6000610d738261097a565b9150610d7e8361097a565b925082821015610d9157610d90610ce3565b5b82820390509291505056fea264697066735822122023ccd2f7fb350d6b5b01ce719e3c953cc33167d87b27badb6a58dfffe346c42964736f6c634300080b0033",
  "immutableReferences": {},
  "source": "pragma solidity ^0.8.0;\r\n\r\ncontract RWD {\r\n   string public name =  \"Reward Token\";\r\n   string public symbol = \"RWD\";\r\n   uint256 public totalSupply = 1000000000000000000000000; // a million tokens\r\n   uint8 public decimals = 18;\r\n\r\n   event Transfer(\r\n       address indexed _from,\r\n       address indexed _to,\r\n       uint _value\r\n   );\r\n\r\n   event Approve(\r\n       address indexed _owner,\r\n       address indexed _spender,\r\n       uint _value\r\n   );\r\n\r\n   mapping(address => uint) public balanceOf;\r\n   mapping(address => mapping(address => uint)) public allowance;\r\n\r\n   constructor() public {\r\n       balanceOf[msg.sender] = totalSupply;\r\n   }\r\n\r\n   function transfer(address _to, uint _value) public returns (bool success) {\r\n       // the value in the bank must be greater than that for transfer\r\n       require(balanceOf[msg.sender] >= _value);\r\n       // transfer the amount and subtract the balance \r\n       balanceOf[msg.sender] -= _value;\r\n       // add the balance from sender to receiver\r\n       balanceOf[_to] += _value;\r\n       emit Transfer(msg.sender, _to, _value);\r\n       return true;\r\n   }\r\n\r\n   function approved(address _spender, uint _value) public returns (bool success) {\r\n       allowance[msg.sender][_spender] = _value;\r\n       emit Approve(msg.sender, _spender, _value);\r\n       return true;\r\n   }\r\n\r\n   function transferFrom(address _from, address _to, uint _value) public returns (bool success) {\r\n       require(_value <= balanceOf[_from], 'utility');\r\n       require(_value <= allowance[_from][msg.sender], 'utilities');\r\n       // add the balance from sender to receiver\r\n       balanceOf[_to] += _value;\r\n       // add the balance from receiver to sender\r\n       balanceOf[_from] -= _value;\r\n       allowance[msg.sender][_from] -= _value;\r\n       emit Transfer(_to, _from, _value);\r\n       return true;\r\n   }\r\n} ",
  "sourcePath": "D:\\Portfolio (Solidarity)\\defi-staking-app-starter\\defi-staking-app-starter\\src\\contracts\\RWD.sol",
  "compiler": {
    "name": "solc",
    "version": "0.8.11+commit.d7f03943.Emscripten.clang"
  },
  "schemaVersion": "3.4.3",
  "updatedAt": "2022-01-30T22:40:41.901Z",
  "devdoc": {
    "kind": "dev",
    "methods": {},
    "version": 1
  },
  "userdoc": {
    "kind": "user",
    "methods": {},
    "version": 1
  }
}